eCONNECT
E8=FIX.4.4|9=64|35=A|34=1|49=TEST|52=00000000-00:00:00|56=LOGON|98=0|108=20|
eDISCONNECT
