# When we receive a valid logon, we must respond with one

iCONNECT
I8=FIX.4.4|35=A|34=1|49=LOGON|52=<TIME>|56=TEST|98=0|108=20|
E8=FIX.4.4|9=64|35=A|34=1|49=TEST|52=00000000-00:00:00|56=LOGON|98=0|108=20|

# logout message and response
I8=FIX.4.4|35=5|34=2|49=LOGON|52=<TIME>|56=TEST|
E8=FIX.4.4|9=52|35=5|34=2|49=TEST|52=00000000-00:00:00|56=LOGON|
iDISCONNECT
