8=FIX.4.1|9=57|35=A|34=1|49=ISLD|52=20230605-20:15:22|56=TW|98=0|108=30|10=6|8=FIX.4.1|9=94|35=5|34=2|49=ISLD|52=20230605-20:15:22|56=TW|58=MsgSeqNum too low, expecting 5 but received 2|10=126|