# When we receive a valid logon, we must respond with one

eCONNECT
E8=FIX.4.4|9=60|35=A|34=1|49=TW|52=00000000-00:00:00|56=ISLD|98=0|108=1|
I8=FIX.4.4|9=56|35=A|34=1|49=ISLD|52=<TIME>|56=TW|98=0|108=1|10=0|

# heartbeat message and response
E8=FIX.4.4|9=49|35=V|34=2|49=TW|52=00000000-00:00:00|56=ISLD|
E8=FIX.4.4|9=49|35=V|34=3|49=TW|52=00000000-00:00:00|56=ISLD|
I8=FIX.4.4|9=45|35=0|34=2|49=ISLD|52=<TIME>|56=TW|10=0|
E8=FIX.4.4|9=49|35=0|34=4|49=TW|52=00000000-00:00:00|56=ISLD|

I8=FIX.4.4|9=45|35=5|34=3|49=ISLD|52=<TIME>|56=TW|10=0|
E8=FIX.4.4|9=49|35=5|34=5|49=TW|52=00000000-00:00:00|56=ISLD|
eDISCONNECT
