8=FIX.4.1|9=46|35=5|34=11|49=ISLD|52=00000000-00:00:00|56=TW|10=0|