8=FIX.4.1|9=45|35=5|34=3|49=ISLD|52=00000000-00:00:00|56=TW|10=0|