8=FIX.4.4|9=60|35=A|34=1|49=ISLD|52=00000000-00:00:00.000|56=TW|98=0|108=2|10=0|