8=FIX.4.2|9=111|35=D|34=4|49=TW|52=<TIME>|56=ISLD|11=ID|21=3|40=1|54=1|55=INTC|60=<TIME>|