8=FIX.4.4|9=58|35=1|34=7|49=ISLD|52=00000000-00:00:00.000|56=TW|112=TEST|10=213|