8=FIX.4.4|9=83|35=B|34=2|49=ISLD|52=00000000-00:00:00.000|56=TW|347=UTF-8|33=0|148=ole!|359=olé!|10=69|